:100000007CC495C494C493C492C442C690C48FC4A3
:100010008EC48DC48CC48BC48AC489C488C4004077
:100020007A10F35A00A0724E18090010A5D4E80007
:1000300000E87648170000E40B54020000CA9A3B1F
:10004000000000E1F50500008096980000004042A5
:100050000F000000A0860100000010270000000033
:10006000E803000000006400000000000A00000037
:1000700000000100000000002C76D888DC674F08E3
:1000800023DFC1DFAE59E1B1B796E5E3E453C63AE9
:10009000E651997696E8E6C28426EB898C9B62ED60
:1000A000407C6FFCEFBC9C9F40F2BAA56FA5F4901A
:1000B000055A2AF75C936B6CF9676DC11BFCE0E491
:1000C0000D47FEF520E6B500D0ED902E03009435E7
:1000D00077050080841E080000204E0A000000C83A
:1000E0000C333333330F986E12831141EF8D21148B
:1000F000893BE65516CFFEE6DB18D1844B381BF75B
:100100007C1D901DA4BBE424203284725E228100F9
:10011000C9F124ECA1E53D2700000000000000002B
:1001200000005F0000000000000007000700000062
:1001300000147F147F14000000242A7F2A1200007C
:100140000023130864620000003649552250000065
:100150000000050300000000001C22410000000018
:100160000041221C0000000000082A1C2A08000090
:100170000008083E0808000000A060000000000021
:100180000008080808080000006060000000000087
:100190000020100804020000003E5149453E0000C6
:1001A0000000427F400000000062514949460000C3
:1001B0000022414949360000001814127F10000047
:1001C0000027454545390000003C4A4949300000B8
:1001D0000001710905030000003649494936000055
:1001E00000064949291E00000000363600000000C4
:1001F0000000AC6C00000000000814224100000068
:10020000001414141414000000412214080000000B
:10021000000201510906000000324979413E000008
:10022000007E0909097E0000007F49494936000027
:10023000003E414141220000007F4141221C00005C
:10024000007F494949410000007F09090901000078
:10025000003E414151720000007F0808087F000005
:1002600000417F4100000000002040413F010000AC
:10027000007F081422410000007F40404040000001
:10028000007F020C027F0000007F0408107F000046
:10029000003E4141413E0000007F0909090600007F
:1002A000003E4151215E0000007F091929460000EF
:1002B00000264949493200000001017F0101000088
:1002C000003F4040403F0000001F2040201F000032
:1002D000003F4038403F00000063140814630000F2
:1002E0000003047804030000006151494543000005
:1002F000007F4141000000000002040810200000BF
:100300000041417F000000000004020102040000DF
:100310000080808080800000000102040000000056
:100320000020545454780000007F484444380000B2
:10033000003844442800000000384444487F00004E
:10034000003854545418000000087E0902000000D0
:100350000018A4A4A47C0000007F08040478000016
:1003600000007D00000000000080847D000000008F
:10037000007F10284400000000417F400000000082
:10038000007C041804780000007C08047C00000055
:10039000003844443800000000FC24241800000009
:1003A00000182424FC00000000007C080400000069
:1003B000004854542400000000047F440000000062
:1003C000003C40407C000000001C2040201C00003D
:1003D000003C4030403C000000442810284400000D
:1003E000001CA0A07C000000004464544C440000A9
:1003F000000836410000000000007F0000000000FF
:100400000041360800000000000201010201000066
:1004100000020505020000000000000000000000CE
:1004200000000000000000000000000000000000CC
:1004300000000000000000000000000000000000BC
:1004400000000000000000000000000000000000AC
:10045000000000000000000000000000000000009C
:100460000000000000000000000000000F0F0F0F50
:100470000F0F000000000000000000C0E0F0F0F0EE
:10048000F0F0F0F0F0F0F0F0F0F0F0E0C00000007C
:10049000000000FFFFFFFF0100000000000000005F
:1004A00001FFFFFFFF000000000000FFFFFFFF80D3
:1004B000000000000000000080FFFFFFFF000000C0
:1004C00000000003070F0F0F0F0F0F0F0F0F0F0F7D
:1004D0000F0F0F0703000000000000C0E0F0F0F075
:1004E000F0F0F0F0F0F0F0F0F0F0F0E0C00000001C
:1004F000000000FFFFFFFF010000000000000000FF
:1005000001FFFFFFFF000000000000FFFFFFFF8072
:10051000000000000000000080FFFFFFFF0000005F
:1005200000000003070F0F0F0F0F0F0F0F0F0F0F1C
:100530000F0F0F0703000000000000000000000084
:10054000000000000000E0F0F0E00000000000000B
:100550000000000000000000000000000000FFFF9D
:10056000FFFF00000000000000000000000000008D
:10057000000000000000FFFFFFFF0000000000007F
:100580000000000000000000000000000000030761
:100590000703000000000000000000E0F0F0F0F0B1
:1005A000F0F0F0F0F0F0F0F0F0F0F0E0000000001B
:1005B00000000081C1C0C0C0C0C0C0C0C0C0C0E198
:1005C000FFFFFFFF00000000000000FFFFFFFF87AC
:1005D00003030303030303030303838100000000F9
:1005E000000000070F0F0F0F0F0F0F0F0F0F0F0F50
:1005F0000F0F0F0700000000000000E0F0F0F0F027
:10060000F0F0F0F0F0F0F0F0F0F0F0E000000000BA
:1006100000000081C1C0C0C0C0C0C0C0C0C0C0E137
:10062000FFFFFF7F00000000000000818303030341
:100630000303030303030387FFFFFFFE0000000023
:10064000000000070F0F0F0F0F0F0F0F0F0F0F0FEF
:100650000F0F0F0700000000000000E0F0F0F03086
:100660000000000000000030F0F0F0E000000000AA
:10067000000000FFFFFFFFE0C0C0C0C0C0C0C0E07E
:10068000FFFFFFFF00000000000000010303030361
:100690000303030303030307FFFFFFFF0000000042
:1006A0000000000000000000000000000000000C3E
:1006B0000F0F0F0700000000000000E0F0F0F0F066
:1006C000F0F0F0F0F0F0F0F0F0F0F0E000000000FA
:1006D000000000FFFFFFFFE1C0C0C0C0C0C0C0C03D
:1006E000C0C0C1810000000000000081830303033B
:1006F0000303030303030387FFFFFFFF0000000062
:10070000000000070F0F0F0F0F0F0F0F0F0F0F0F2E
:100710000F0F0F0700000000000000E0F0F0F0F005
:10072000F0F0F0F0F0F0F0F0F0F0F0E00000000099
:10073000000000FFFFFFFFE1C0C0C0C0C0C0C0C0DC
:10074000C0C0C18100000000000000FFFFFFFF8764
:100750000303030303030387FFFFFFFF0000000001
:10076000000000070F0F0F0F0F0F0F0F0F0F0F0FCE
:100770000F0F0F0700000000000000E0F0F0F0F0A5
:10078000F0F0F0F0F0F0F0F0F0F0F0E00000000039
:100790000000000101000000000000000000000156
:1007A000FFFFFFFF0000000000000000000000004D
:1007B0000000000000000000FFFFFFFF000000003D
:1007C0000000000000000000000000000000000C1D
:1007D0000F0F0F0700000000000000E0F0F0F0F045
:1007E000F0F0F0F0F0F0F0F0F0F0F0E000000000D9
:1007F0000000007FFFFFFFE1C0C0C0C0C0C0C0E17B
:10080000FFFFFF3F00000000000000FEFFFFFF872A
:100810000303030303030387FFFFFFFE0000000041
:10082000000000070F0F0F0F0F0F0F0F0F0F0F0F0D
:100830000F0F0F0700000000000000E0F0F0F0F0E4
:10084000F0F0F0F0F0F0F0F0F0F0F0E00000000078
:10085000000000FFFFFFFFE1C0C0C0C0C0C0C0E19A
:10086000FFFFFFFF0000000000000001030303037F
:100870000303030303030307FFFFFFFF0000000060
:100880000000000000000000000000000000000C5C
:100890000F0F0F0700000000000000000000000024
:1008A0000000000000000000000000000000000048
:1008B0000000000000000000003C7E7E7E7E3C00C8
:1008C0000000000000000000000000000000000028
:1008D00000F0F8F8F8F8F000000000000000000058
:1008E0000000000000000000000001010101000004
:1008F00000000000000000004B0811241FBECFE5DF
:10090000D2E0DEBFCDBF20E0A0E6B0E001C01D9286
:10091000AE3AB207E1F714E0CDE7D4E003C0219787
:10092000FE0144D8CC37D107D1F7FCD145C868CBFC
:10093000E091AD00E13150F4EF5FE093AD00F0E005
:10094000E556FF4F808381E090E0089590E080E0DD
:100950000895865087B9369A3699FECF84B195B1FD
:1009600008953FB7F8948091650090916600A0913A
:100970006700B091680022B708B601FE05C02F3F9E
:1009800019F00196A11DB11D3FBFBA2FA92F982FB5
:100990008827BC01CD01620F711D811D911D43E0AF
:1009A000660F771F881F991F4A95D1F708958F9278
:1009B0009F92AF92BF92CF92DF92EF92FF924B0144
:1009C0005C01CFDF6B017C01CCDF6C197D098E09E6
:1009D0009F09683E734081059105B0F321E0821ABA
:1009E0009108A108B10888EEC80E83E0D81EE11C6A
:1009F000F11C81149104A104B10431F7FF90EF9030
:100A0000DF90CF90BF90AF909F908F900895C29A43
:100A1000C29BFECF8DE08A95F1F70000C0988AE076
:100A20008A95F1F700C0C298C09A779905C083E013
:100A300080939A0080E0089581E008958EB98BE25A
:100A40009DE09A95F1F700008DB9B29BFECF9AE038
:100A50009A95F1F700C08DB9769BF2CF8DE08A951B
:100A6000F1F700008FB19FEF9FB9B89A0895CF9228
:100A7000DF92EF92FF920F931F93CF93DF9300913A
:100A8000AD0081E080939A0080919B0080FD03C0BF
:100A900083E080939A00BBDF882311F10F5F102F52
:100AA000CBE9D0E0DD24DA94CC24C3947E018FEF2F
:100AB000E81AF80A80919A00837009F44AC0C29833
:100AC00088818FB980EFBADFB8988EEFB7DF909149
:100AD0009A0080FF12C081E090FF82E080939A002C
:100AE0001092AD0080919A00DF91CF911F910F91EC
:100AF000FF90EF90DF90CF900895892F857084301C
:100B000061F480919B00816080939B00C0929A0069
:100B10007EDF81112AC08AE0E1CF9E7F90939A0008
:100B2000E701115009F0C2CF1092AD00C098C29AEF
:100B3000B29BFECF8AE08A95F1F700C0C09A8DE0A3
:100B40008A95F1F70000759914C084E080939A00AB
:100B5000CBCFB89880EF72DF8883113021F4DFB8F3
:100B60008EEF6CDFDDCF1FB8FBCF102FCBE9D0E0CD
:100B7000D8CF80E0B9CFCF93C82F1092AD0088E7CF
:100B800080939B0080E8D4DE8C2FD2DECF916FCF94
:100B9000CF93DF93C82FD62F880F880F880F8870C8
:100BA000EADF8C2F90E0969587958F70805FE3DF6A
:100BB00080EB8D0FDF91CF91DECFCF93C82F1092B6
:100BC000AD0088E780939B0080E4B2DE8C2FB0DE1E
:100BD000CF914DCFDF92EF92FF920F931F93CF9360
:100BE000DF93C62F8C01D12CD1E0F80180818823BE
:100BF00099F1D03189F16C2F8D2FCADFF12CE12CC6
:100C0000F801808192ED980F9D30B0F080E0D5DF43
:100C1000F6E1FD15F8F4CF5F6C2F8D2FB9DFD12CE5
:100C20008FEFE81AF80AE0E6EE16F10449F7DD5F07
:100C3000C4500F5F1F4FD9CF082E000C990B8E9711
:100C400060E670E0A2D68E0D9F1D885E9B4FFC0172
:100C50008491DDCFD394E4CFDF91CF911F910F9199
:100C6000FF90EF90DF900895CF93DF93C0E06C2F5B
:100C700080E08EDFD0E080E0A0DFDF5FD038D9F702
:100C8000CF5FC830A1F760E080E0DF91CF9180CFE7
:100C90001F920F920FB60F9211242F933F938F93B1
:100CA0009F93AF93BF938091610090916200A09158
:100CB0006300B09164003091600026E0230F2D376F
:100CC00058F50296A11DB11D20936000809361002C
:100CD00090936200A0936300B093640080916500DC
:100CE00090916600A0916700B09168000196A11DE7
:100CF000B11D8093650090936600A0936700B09348
:100D00006800BF91AF919F918F913F912F910F906C
:100D10000FBE0F901F90189529E8230F0396A11D71
:100D2000B11DD2CFCF93DF93CDB7DEB72E970FB6DD
:100D3000F894DEBF0FBECDBF78948AB582608ABDBD
:100D40008AB581608ABD83B7826083BF83B78160C3
:100D500083BF89B7826089BF80B7826080BF80B758
:100D6000816080BF329A319A3098379A8CB580640E
:100D70008CBDC09AC29ABA9AB89A8FEF8FB98AE29C
:100D80008DB980EF8EB98EEAF6DE6AE070E080E021
:100D900090E00DDE8FEAEFDE6AE070E080E090E048
:100DA00006DE86EAE8DE82E08093990080E2E3DEF8
:100DB00082E0E1DE59DF60E080E0EADE8DE8DBDE44
:100DC00084E1D9DE81EAD7DE88ECD5DE4DDF9AE01A
:100DD000292E312CF12CE12C88E0BBDDE80EF91E28
:100DE00081E0281A3108C1F780916D0090916E0062
:100DF000A0916F00B09170008B879C87AD87BE87F4
:100E00002091690030916A0040916B0050916C0014
:100E1000BC01CD01F5D39B01AC016B857C858D8533
:100E20009E8552D44B015C0180927D0090927E00A1
:100E3000A0927F00B09280004090790050907A009C
:100E400060907B0070907C00B701FF0C880B990BC1
:100E5000A5D4A3019201D3D3A50194012BD5A3015D
:100E60009201CED36B017C01C0927500D0927600C6
:100E7000E0927700F0927800AC019B01C301B201CF
:100E8000BED39F7720917100309172004091730022
:100E9000509174000FD52B013C01A501940160E035
:100EA00070E080E89FE3ABD32B853C854D855E8564
:100EB00001D59B01AC01C301B201A2D360936D00C7
:100EC00070936E0080936F0090937000C0927900D1
:100ED000D0927A00E0927B00F0927C0026E636EA1F
:100EE0004AE254E4C701B601EFD38E010F5F1F4FF2
:100EF00022E045E0FDD062E080E04ADEF101E85307
:100F0000FC4F84915ADE9FEF291A390AA8E02A166D
:100F10003104A1F760E0CE0101965CDE8AE0282E64
:100F2000312CF12CE12C89E014DDE80EF91EB1E042
:100F30002B1A3108C1F78091850090918600A0910D
:100F40008700B09188008B879C87AD87BE872091F2
:100F50008100309182004091830050918400BC0157
:100F6000CD014ED39B01AC016B857C858D859E8523
:100F7000ABD34B015C018092950090929600A092B9
:100F80009700B0929800409091005090920060902D
:100F9000930070909400B701FF0C880B990BFED35F
:100FA000A30192012CD3A501940184D4A301920141
:100FB00027D36B017C01C0928D00D0928E00E0920D
:100FC0008F00F0929000AC019B01C301B20117D3D6
:100FD0009F772091890030918A0040918B00509139
:100FE0008C0068D42B013C01A501940160E070E005
:100FF00080E89FE304D32B853C854D855E855AD4DC
:101000009B01AC01C301B201FBD2609385007093D8
:1010100086008093870090938800C0929100D092C0
:101020009200E0929300F092940020E030E040E2E1
:1010300051E4C701B60148D320E030E040E054E479
:10104000DED22AE037ED43EA51E43ED38E010F5F52
:101050001F4F22E045E04CD066E080E099DDF101D1
:10106000E05EFD4F8491A9DD9FEF291A390AA8E0BF
:101070002A163104A1F764E0CE010196ABDD64E6E7
:1010800070E080E090E093DC80E090E0892B09F450
:101090009ECEB6D79CCE0F931F93E1E8F0E000E020
:1010A00010E020E031E4008311832283338340E0A9
:1010B00050E060E87FE3448355836683778380E074
:1010C00090E0A0E0BFE380879187A287B387E9E63D
:1010D000F0E0008311832283338344835583668346
:1010E000778380879187A287B3871F910F91089597
:1010F000EF920F931F93CF93DF93E80134E047FD06
:1011000034E1042E000C550B57FF03C05195419557
:101110005109E32E022F242FAE0107D0CE01DF911B
:10112000CF911F910F91EF900895A9E0B0E0EAE907
:10113000F8E034C26A01F22EB02E102FFBE3AF2E7E
:10114000A01608F41BE31F5F012F27E0AE014F5FDD
:101150005F4F46D1BC018981982F99709130F1F190
:101160009BE2E1FC04C09E2D9170E0FC39C05E2D35
:101170005071E82FE87083FF45C084E0911101C0F1
:1011800083E0EF2DE81B8F1508F0E0E0D6018E2FED
:1011900020E2552349F1992329F0D6019C93C601F9
:1011A00001966C0196012D5F3F4FE2FE23C08EE455
:1011B000D6018C9391E411969C93119712968C937F
:1011C000D9018E2F90E281111AC0E20FF32FF11D89
:1011D00010828EEF9FEF2996ECE0FCC19DE2C7CF15
:1011E00090E2C5CF2D9381508111FCCFCE0ED11C42
:1011F000E0E0D1CF8EE6D6018C9391E6DCCF9D93D3
:101200008150E1CF482F447082FF3DC084E09111AE
:1012100001C083E08F1510F4EF2DE81BD6018E2F4F
:1012200020E2552309F1992329F0D6019C93C601A8
:1012300001966C0196012D5F3F4FE2FE1BC089E4D1
:10124000D6018C938EE411968C93119786E41296B6
:101250008C93D9018E2F90E2882309F4B6CF9D9309
:101260008150FACF2D9381508111FCCFCE0ED11C2D
:10127000E0E0D9CF89E6D6018C938EE611968C9367
:10128000119786E6E4CF9B0177FF02C030E020E0B3
:10129000A1E0B0E0911102C0B0E0A0E0F901319608
:1012A000AE0FBF1F8B2C912CBB2009F461C05401E1
:1012B000EFEFAE1ABE0AAA0DBB1DFA161B0619F0F7
:1012C00014F04F2D4A1B511188C0E3FC59C0760120
:1012D000A42FB0E2A1114FC0C40ED11C992309F470
:1012E0005BC040E0D6011196F60190836D01552355
:1012F00009F448C0012F060F9A81582F507184FFBE
:1013000003C0913309F4015010160CF047C00930A6
:1013100008F008E0EEE2FE2E5B01A01AB10885019C
:101320009194819491082F3F320729F4D601FC92C1
:10133000F60131966F016217730794F102171307D4
:101340007CF5DB01A21BB30BAA24A394B12CAC0E39
:10135000BD1EAA0DBB1D11968C9121503109D601DD
:10136000119628153905F4F0F60180836D01DBCF65
:10137000B12CA12CA0CFF701B1937F01A150AACF2E
:101380009111B0CFD601942F50E302C05D939150DC
:101390009111FCCFC40ED11C40E0ACCF01E0BACF1C
:1013A00080E3DBCF6217730731F4963388F495330B
:1013B00011F4552369F0F6018083FD01842F90E23A
:1013C000811108C0A40FB11D1C9290E080E003CFF2
:1013D00081E3F1CF91938150F3CF911183CF8ACFE5
:1013E000283008F027E03327DA01990F311D87FDF7
:1013F000916000966105710539F432602E5F3D936E
:1014000030E32A95E1F708959F3F30F08038710569
:10141000610509F03C5F3C5F3D93913008F08068C6
:10142000911DDF93CF931F930F93FF92EF92192F8C
:10143000987F9695E92F96959695E90FFF27E8589E
:10144000FF4F99273327EE24FF24A701E7010590DA
:101450000894079428F4360FE71EF81E491F511D03
:10146000660F771F881F991F0694A1F705900794B0
:1014700028F4E70EF81E491F561FC11D770F881F5D
:10148000991F661F0694A1F70590079428F4F80E9B
:10149000491F561FC71FD11D880F991F661F771F31
:1014A0000694A1F70590079420F4490F561FC71F13
:1014B000D81F990F661F771F881F0694A9F784917C
:1014C0001095177041F0D695C79557954795F794A5
:1014D000E7941A95C1F7EEE1F0E068941590159144
:1014E00035916591959105907FE27395E118F10A28
:1014F000430B560BC90BD009C0F7E10CF11E431F7B
:10150000561FC91FD01D7EF4703311F48A95E6CFA3
:10151000E894015030F0080F0AF40027021708F48D
:10152000202F2395022F7A3328F079E37D932A9593
:10153000E9F710C07D932A9589F6069497956795EB
:10154000379517951794E118F10A430B560BC90B01
:10155000D00998F023957E9173957A3308F070E363
:101560007C932013B8F77E9170617D9330F0839562
:1015700071E37D9370E32A95E1F71124EF90FF90DA
:101580000F911F91CF91DF91992787FD9095089535
:101590002F923F924F925F926F927F928F929F9283
:1015A000AF92BF92CF92DF92EF92FF920F931F9371
:1015B000CF93DF93CDB7DEB7CA1BDB0B0FB6F89422
:1015C000DEBF0FBECDBF09942A88398848885F8462
:1015D0006E847D848C849B84AA84B984C884DF80D3
:1015E000EE80FD800C811B81AA81B981CE0FD11DB7
:1015F0000FB6F894DEBF0FBECDBFED010895505871
:10160000BB27AA270ED01CC10DD130F012D120F07B
:1016100031F49F3F11F41EF402C10EF4E095E7FB94
:10162000F8C0E92F1ED180F3BA1762077307840749
:10163000950718F071F49EF536C10EF4E0950B2E67
:10164000BA2FA02D0B01B90190010C01CA01A00114
:101650001124FF27591B99F0593F50F4503E68F16F
:101660001A16F040A22F232F342F4427585FF3CFB0
:10167000469537952795A795F0405395C9F77EF481
:101680001F16BA0B620B730B840BBAF09150A1F0CA
:10169000FF0FBB1F661F771F881FC2F70EC0BA0F50
:1016A000621F731F841F48F4879577956795B795D8
:1016B000F7959E3F08F0B3CF9395880F08F09927D0
:1016C000EE0F9795879508950CD0BAC0B2D040F030
:1016D000A9D030F021F45F3F19F09BC05111E4C054
:1016E0009EC0BFD098F39923C9F35523B1F3951B3E
:1016F000550BBB27AA2762177307840738F09F5F33
:101700005F4F220F331F441FAA1FA9F333D00E2EA1
:101710003AF0E0E830D091505040E695001CCAF70E
:1017200029D0FE2F27D0660F771F881FBB1F2617D3
:1017300037074807AB07B0E809F0BB0B802DBF01A6
:10174000FF2793585F4F2AF09E3F510568F061C014
:10175000ABC05F3FECF3983EDCF3869577956795D9
:10176000B795F7959F5FC9F7880F911D9695879557
:1017700097F90895E1E0660F771F881FBB1F621776
:1017800073078407BA0720F0621B730B840BBA0B34
:10179000EE1F88F7E0950895E89409C097FB3EF4A2
:1017A00090958095709561957F4F8F4F9F4F9923AE
:1017B000A9F0F92F96E9BB279395F695879577952C
:1017C0006795B795F111F8CFFAF4BB0F11F460FFEC
:1017D0001BC06F5F7F4F8F4F9F4F16C0882311F044
:1017E00096E911C0772321F09EE8872F762F05C058
:1017F000662371F096E8862F70E060E02AF09A95F3
:10180000660F771F881FDAF7880F9695879597F9E7
:10181000089597F99F6780E870E060E008959FEF72
:1018200080EC089500240A94161617061806090677
:10183000089500240A941216130614060506089546
:10184000092E0394000C11F4882352F0BB0F40F4CE
:10185000BF2B11F460FF04C06F5F7F4F8F4F9F4F0E
:10186000089557FD9058440F551F59F05F3F71F090
:101870004795880F97FB991F61F09F3F79F08795F7
:101880000895121613061406551FF2CF4695F1DF80
:1018900008C0161617061806991FF1CF8695710510
:1018A000610508940895E894BB2766277727CB0144
:1018B00097F908950AD0C4CFB5DF28F0BADF18F041
:1018C000952309F0A6CFABCFEFCFCBDFA8F39923B9
:1018D000D9F35523C9F3950F50E0551FAA27EE27DA
:1018E000FF27BB2700240894679520F4E20FF31F1D
:1018F000B41F0A1E220F331F441FAA1F6695A9F7A3
:10190000779530F4F30FB41F0A1E121E08F4639586
:10191000330F441FAA1F221F769599F7879520F44D
:10192000B40F0A1E121E631F440FAA1F221F331F6B
:101930008695A9F7862F712D602D11249F57504051
:101940008AF0E1F088234AF0EE0FFF1FBB1F661FED
:10195000771F881F91505040A9F79E3F510570F0A6
:1019600058CFA2CF5F3FECF3983EDCF38695779596
:101970006795B795F795E7959F5FC1F7FE2B880FA1
:10198000911D9695879597F908950024552704C0D1
:10199000080E591F880F991F009729F076956795B3
:1019A000B8F37105B9F7802D952F0895EE0FFF1F3D
:0C19B0000590F491E02D0994F894FFCF0D
:00000001FF
